:020000000F28C7
:10000800CB00030ECC000B109C01CA144C0E8300CD
:10001800CB0E4B0E09008801870185011A30B0000C
:10002800C301C401CA01C601C7014630C500640046
:100038008B01640083308E0081309D0064001D1F99
:100048002228BD309F000230860089008E130A30B6
:10005800C1000230C0007F30C20064008B019A01E9
:100068009B019A149B148B158B1707100711851C7D
:100078006228850187010714FE30C400C3009D0172
:100088009F01071430144308C4006300CA180F28DE
:1000980081309D0064001D1F4E28BD309F009F14B5
:1000A80064009F1854281E08C300440A4302031919
:1000B8004328031C43280710DF200F28DC209F1447
:1000C80064009F1864281E08C300C607DF209F1419
:1000D80064009F186C281E08C300C6070318C70AC7
:1000E800DF209F1464009F1876281E08C300C607E7
:1000F8000318C70ADF209F1464009F1880281E0871
:10010800C300C6070318C70A0310C70CC60C0310A0
:10011800C70CC60C46304602031C97284430C5005D
:100128007F30C2009C284630C5007F30C2009C2822
:10013800CA180F289F1464009F189F281E08C30020
:1001480045084302031CB22807110718C728C00B2B
:10015800AF280714C728C20BC928D5284530430241
:10016800031CC228C20BB928D52846304302031CF9
:10017800CB28C10BCB2807100711C928071CC62894
:100188000710C72807150230C0000A30C1006400F4
:10019800DC20DC20071C9C28DC20DC20DC20DC2088
:1001A8009C28870185019D019F01301063000F285D
:1001B800F430C800E1280530C800C9016400000017
:1001C8000000000000000000000000000000000027
:1001D80000000000C90BE228C80BE12800342D00FC
:1001E8002D002D0043006F006E006400690074004C
:1001F80069006F006E0065007200560031002E0025
:0802080030002D002D002D0037
:02400E00E83D8B
:00000001FF
